:03000000020006F5
:20005F0075087F7509BF750ADF750BEF750CF7750DFB750EFD750FFE7510FF7511FF7512F4
:13007F00007513007514557515557516AA7517AA020003B9
:0300030002009266
:200092007590FE7F00904E20C00712012CD007E590FE25E0F5900FBF080040E975907F7FF2
:2000B20000904E20C00712012CD007E590C313F5900FBF080040EA7590FE7F00904E20C043
:2000D2000712012CD007E59025E0F590AD907E004305018D900FBF080040E175907F7F00D7
:2000F200904E20C00712012CD007E590C313F590AD907E004305808D900FBF080040E17F2D
:2001120000904E20C00712012CD007EF2408F987900FBF100040EA020092AE82AF83EE24B7
:0F013200FFFCEF34FFFD8C068D07EC4D70F022C3
:06003500E478FFF6D8FD9F
:200013007900E94400601B7A00900145780175A000E493F2A308B8000205A0D9F4DAF2754D
:02003300A0FF2C
:20003B007800E84400600A790175A000E4F309D8FC7800E84400600C7900900001E4F0A3C3
:04005B00D8FCD9FAFA
:0D000600758117120141E5826003020003BD
:0401410075820022A1
:00000001FF
