:03000000020006F5
:03005F0002000399
:0300030002006296
:200062007E007F00EE4F703020B0097590FE7E017F0080F020B1097590FD7E017F0080E41C
:1D00820020B2097590FB7E017F0080D820B3D57590F77E017F0080CCEE4F70FC2277
:06003500E478FFF6D8FD9F
:200013007900E94400601B7A009000A3780175A000E493F2A308B8000205A0D9F4DAF275F0
:02003300A0FF2C
:20003B007800E84400600A790175A000E4F309D8FC7800E84400600C7900900001E4F0A3C3
:04005B00D8FCD9FAFA
:0D00060075810712009FE582600302000370
:04009F007582002244
:00000001FF
