:03000000020006F5
:20005F007508C07509F9750AA4750BB0750C99750D92750E82750FF87510807511900200AE
:01007F00037D
:0300030002008078
:20008000AFB0BF7F028044BFBF02803ABFDF028030BFEF028026BFF702801CBFFB0280127B
:2000A000BFFD028008BFFED885099080D3850A9080CE850B9080C9850C9080C4850D908017
:1000C000BF850E9080BA850F9080B585109080B066
:06003500E478FFF6D8FD9F
:200013007900E94400601B7A009000D4780175A000E493F2A308B8000205A0D9F4DAF275BF
:02003300A0FF2C
:20003B007800E84400600A790175A000E4F309D8FC7800E84400600C7900900001E4F0A3C3
:04005B00D8FCD9FAFA
:0D0006007581111200D0E582600302000335
:0400D0007582002213
:00000001FF
