:03000000020006F5
:03005F0002000399
:0300030002007F79
:10006200AE828E9022AE828EA022AE828EB022AE60
:1000720082AF831EBEFF011FEE4F70F72290A120B8
:1000820012007190007F1200627F0090A120C007D1
:10009200120071D007E590C313F5900FBF0800401E
:1000A200EA90A1201200719000F71200627F009086
:1000B200A120C007120071D007E590C313F5900F7D
:0700C200BF080040EA80DAEC
:06003500E478FFF6D8FD9F
:100013007900E94400601B7A009000CD780175A057
:1000230000E493F2A308B8000205A0D9F4DAF2754C
:02003300A0FF2C
:10003B007800E84400600A790175A000E4F309D860
:10004B00FC7800E84400600C7900900001E4F0A318
:04005B00D8FCD9FAFA
:0D0006007581071200C9E582600302000346
:0400C900758200221A
:00000001FF
