:03000000020006F5
:03005F0002000399
:0300030002007F79
:10006200AE828E9022AE828EA022AE828EB022AE60
:1000720082AF831EBEFF011FEE4F70F72275907F85
:01008200225B
:06003500E478FFF6D8FD9F
:100013007900E94400601B7A00900087780175A09D
:1000230000E493F2A308B8000205A0D9F4DAF2754C
:02003300A0FF2C
:10003B007800E84400600A790175A000E4F309D860
:10004B00FC7800E84400600C7900900001E4F0A318
:04005B00D8FCD9FAFA
:0D000600758107120083E58260030200038C
:040083007582002260
:00000001FF
