:03000000020006F5
:03005F0002000399
:0300030002006296
:20006200D2909017701200E17E017F00C3EE9458EF94025030C2908E828F83C007C006125F
:2000820000E1D006D007D2907458C39EF58274029FF583C007C0061200E1D006D0070EBE44
:2000A20000CA0F80C7C2907E577F02EE4F60B1C2908E828F83C007C0061200E1D006D00787
:2000C200D2907458C39EF58274029FF583C007C0061200E1D006D0071EBEFF011F80CCAE69
:1400E20082AF83EE24FFFCEF34FFFD8C068D07EC4D70F02249
:06003500E478FFF6D8FD9F
:200013007900E94400601B7A009000FA780175A000E493F2A308B8000205A0D9F4DAF27599
:02003300A0FF2C
:20003B007800E84400600A790175A000E4F309D8FC7800E84400600C7900900001E4F0A3C3
:04005B00D8FCD9FAFA
:0D0006007581071200F6E582600302000319
:0400F60075820022ED
:00000001FF
