锘?03000000020006F5
:10005F007508C07509F9750AA4750BB0750C9975FB
:10006F000D92750E82750FF8751080751190020044
:01007F00037D
:0300030002008078
:100080007F00EF2408F98790902710C00712009A8C
:10009000D0070FBF0A0040EA80E6AE82AF83EE24AD
:0F00A000FFFCEF34FFFD8C068D07EC4D70F02256
:06003500E478FFF6D8FD9F
:100013007900E94400601B7A009000B3780175A071
:1000230000E493F2A308B8000205A0D9F4DAF2754C
:02003300A0FF2C
:10003B007800E84400600A790175A000E4F309D860
:10004B00FC7800E84400600C7900900001E4F0A318
:04005B00D8FCD9FAFA
:0D0006007581111200AFE582600302000356
:0400AF007582002234
:00000001FF
