:0400000002001132B7
:03000B000200826E
:03006A0002000E83
:03000E0002007D70
:1E006D00438901758C00758A00D2AFD2A9D28C2212006D80FE758C00758A00D290329B
:06004000E478FFF6D8FD94
:20001E007900E94400601B7A0090008F780175A000E493F2A308B8000205A0D9F4DAF275F9
:02003E00A0FF21
:200046007800E84400600A790175A000E4F309D8FC7800E84400600C7900900001E4F0A3B8
:04006600D8FCD9FAEF
:0D00110075810F12008BE582600302000E66
:04008B007582002258
:00000001FF
