:03000000020006F5
:03005F0002000399
:0300030002007F79
:10006200AE828E9022AE828EA022AE828EB022AE60
:1000720082AF831EBEFF011FEE4F70F72290A120B8
:1000820012007175907F7F0090A120C0071200714D
:10009200D007E590C313F5900FBF080040EA80FE39
:06003500E478FFF6D8FD9F
:100013007900E94400601B7A009000A6780175A07E
:1000230000E493F2A308B8000205A0D9F4DAF2754C
:02003300A0FF2C
:10003B007800E84400600A790175A000E4F309D860
:10004B00FC7800E84400600C7900900001E4F0A318
:04005B00D8FCD9FAFA
:0D0006007581071200A2E58260030200036D
:0400A2007582002241
:00000001FF
