锘?03000000020006F5
:10005F0075087F7509BF750ADF750BEF750CF7759E
:10006F000DFB750EFD750FFE7510FF7511FF7512E7
:10007F00007513007514557515557516AA7517AAC1
:03008F0002000369
:0300030002009266
:100092007F00EF2408F9879090C350C0071200AC8C
:1000A200D0070FBF100040EA80E6AE82AF83EE2495
:0F00B200FFFCEF34FFFD8C068D07EC4D70F02244
:06003500E478FFF6D8FD9F
:100013007900E94400601B7A009000C5780175A05F
:1000230000E493F2A308B8000205A0D9F4DAF2754C
:02003300A0FF2C
:10003B007800E84400600A790175A000E4F309D860
:10004B00FC7800E84400600C7900900001E4F0A318
:04005B00D8FCD9FAFA
:0D0006007581171200C1E58260030200033E
:0400C1007582002222
:00000001FF
