:03000000020006F5
:03005F0002000399
:0300030002006296
:200062007F00D2909001F4C00712009CC2909001F412009CD0070FBF040040E67F00D2906E
:20008200901770C00712009CC29090177012009CD0070FBF040040E680C6AE82AF838E04B2
:1B00A2008F051EBEFF011FEC4D600F7C647D001CBCFF011DEC4D70F780E42294
:06003500E478FFF6D8FD9F
:200013007900E94400601B7A009000C1780175A000E493F2A308B8000205A0D9F4DAF275D2
:02003300A0FF2C
:20003B007800E84400600A790175A000E4F309D8FC7800E84400600C7900900001E4F0A3C3
:04005B00D8FCD9FAFA
:0D0006007581071200BDE582600302000352
:0400BD007582002226
:00000001FF
