锘?03000000020006F5
:03005F0002000399
:0300030002006296
:100062007590FE7F00902710C007120088D007E528
:100072009025E0F590AD907E004305018D900FBF75
:10008200060040E180DAAE82AF83EE24FFFCEF345B
:0B009200FFFD8C068D07EC4D70F02286
:06003500E478FFF6D8FD9F
:100013007900E94400601B7A009000A1780175A083
:1000230000E493F2A308B8000205A0D9F4DAF2754C
:02003300A0FF2C
:10003B007800E84400600A790175A000E4F309D860
:10004B00FC7800E84400600C7900900001E4F0A318
:04005B00D8FCD9FAFA
:0D00060075810712009DE582600302000372
:04009D007582002246
:00000001FF
